{
    "contractName": "Domains",
    "abi": [
        {
            "inputs": [
                {
                    "internalType": "string",
                    "name": "_tld",
                    "type": "string"
                }
            ],
            "stateMutability": "payable",
            "type": "constructor"
        },
        {
            "inputs": [
                {
                    "internalType": "string",
                    "name": "",
                    "type": "string"
                }
            ],
            "name": "domains",
            "outputs": [
                {
                    "internalType": "address",
                    "name": "",
                    "type": "address"
                }
            ],
            "stateMutability": "view",
            "type": "function"
        },
        {
            "inputs": [
                {
                    "internalType": "string",
                    "name": "name",
                    "type": "string"
                }
            ],
            "name": "getAddress",
            "outputs": [
                {
                    "internalType": "address",
                    "name": "",
                    "type": "address"
                }
            ],
            "stateMutability": "view",
            "type": "function"
        },
        {
            "inputs": [
                {
                    "internalType": "string",
                    "name": "name",
                    "type": "string"
                }
            ],
            "name": "getRecord",
            "outputs": [
                {
                    "internalType": "string",
                    "name": "",
                    "type": "string"
                }
            ],
            "stateMutability": "view",
            "type": "function"
        },
        {
            "inputs": [
                {
                    "internalType": "string",
                    "name": "name",
                    "type": "string"
                }
            ],
            "name": "price",
            "outputs": [
                {
                    "internalType": "uint256",
                    "name": "",
                    "type": "uint256"
                }
            ],
            "stateMutability": "pure",
            "type": "function"
        },
        {
            "inputs": [
                {
                    "internalType": "string",
                    "name": "",
                    "type": "string"
                }
            ],
            "name": "records",
            "outputs": [
                {
                    "internalType": "string",
                    "name": "",
                    "type": "string"
                }
            ],
            "stateMutability": "view",
            "type": "function"
        },
        {
            "inputs": [
                {
                    "internalType": "string",
                    "name": "name",
                    "type": "string"
                }
            ],
            "name": "register",
            "outputs": [],
            "stateMutability": "payable",
            "type": "function"
        },
        {
            "inputs": [
                {
                    "internalType": "string",
                    "name": "name",
                    "type": "string"
                },
                {
                    "internalType": "string",
                    "name": "record",
                    "type": "string"
                }
            ],
            "name": "setRecord",
            "outputs": [],
            "stateMutability": "nonpayable",
            "type": "function"
        },
        {
            "inputs": [],
            "name": "tld",
            "outputs": [
                {
                    "internalType": "string",
                    "name": "",
                    "type": "string"
                }
            ],
            "stateMutability": "view",
            "type": "function"
        }
    ],
    "bytecode": "608060405260405162000d8e38038062000d8e833981016040819052620000269162000114565b6200005560405180606001604052806026815260200162000d68602691396200005c60201b620005a91760201c565b5062000201565b620000a781604051602401620000739190620001cc565b60408051601f198184030181529190526020810180516001600160e01b0390811663104c13eb60e21b17909152620000aa16565b50565b80516a636f6e736f6c652e6c6f67602083016000808483855afa5050505050565b634e487b7160e01b600052604160045260246000fd5b60005b83811015620000fe578181015183820152602001620000e4565b838111156200010e576000848401525b50505050565b6000602082840312156200012757600080fd5b81516001600160401b03808211156200013f57600080fd5b818401915084601f8301126200015457600080fd5b815181811115620001695762000169620000cb565b604051601f8201601f19908116603f01168101908382118183101715620001945762000194620000cb565b81604052828152876020848701011115620001ae57600080fd5b620001c1836020830160208801620000e1565b979650505050505050565b6020815260008251806020840152620001ed816040850160208701620000e1565b601f01601f19169190910160400192915050565b610b5780620002116000396000f3fe60806040526004361061007b5760003560e01c8063bf40fac11161004e578063bf40fac114610144578063c1880a9814610164578063f2c298be14610186578063fe2c61981461019957600080fd5b806311dd88451461008057806326449235146100b65780632d5514321461010f578063541e771d14610124575b600080fd5b34801561008c57600080fd5b506100a061009b36600461083c565b6101c7565b6040516100ad91906108cb565b60405180910390f35b3480156100c257600080fd5b506100f76100d13660046108fb565b80516020818301810180516001825292820191909301209152546001600160a01b031681565b6040516001600160a01b0390911681526020016100ad565b34801561011b57600080fd5b506100a061027b565b34801561013057600080fd5b506100a061013f3660046108fb565b610309565b34801561015057600080fd5b506100f761015f36600461083c565b61032d565b34801561017057600080fd5b5061018461017f3660046109ac565b610362565b005b61018461019436600461083c565b6103d6565b3480156101a557600080fd5b506101b96101b436600461083c565b610513565b6040519081526020016100ad565b6060600283836040516101db929190610a18565b908152602001604051809103902080546101f490610a28565b80601f016020809104026020016040519081016040528092919081815260200182805461022090610a28565b801561026d5780601f106102425761010080835404028352916020019161026d565b820191906000526020600020905b81548152906001019060200180831161025057829003601f168201915b505050505090505b92915050565b6000805461028890610a28565b80601f01602080910402602001604051908101604052809291908181526020018280546102b490610a28565b80156103015780601f106102d657610100808354040283529160200191610301565b820191906000526020600020905b8154815290600101906020018083116102e457829003601f168201915b505050505081565b80516020818301810180516002825292820191909301209152805461028890610a28565b600060018383604051610341929190610a18565b908152604051908190036020019020546001600160a01b0316905092915050565b336001600160a01b03166001858560405161037e929190610a18565b908152604051908190036020019020546001600160a01b0316146103a157600080fd5b8181600286866040516103b5929190610a18565b9081526040519081900360200190206103cf92909161075a565b5050505050565b60006001600160a01b0316600183836040516103f3929190610a18565b908152604051908190036020019020546001600160a01b03161461041657600080fd5b60006104228383610513565b9050803410156104705760405162461bcd60e51b8152602060048201526015602482015274139bdd08195b9bdd59da0813585d1a58c81c185a59605a1b604482015260640160405180910390fd5b3360018484604051610483929190610a18565b908152602001604051809103902060006101000a8154816001600160a01b0302191690836001600160a01b0316021790555061050e604051806060016040528060218152602001610b01602191393385858080601f0160208091040260200160405190810160405280939291908181526020018383808284376000920191909152506105ef92505050565b505050565b60008061055584848080601f01602080910402602001604051908101604052809392919081815260200183838082843760009201919091525061063692505050565b90506000811161056457600080fd5b806003141561057e576706f05b59d3b20000915050610275565b806004141561059857670429d069189e0000915050610275565b67016345785d8a0000915050610275565b6105ec816040516024016105bd91906108cb565b60408051601f198184030181529190526020810180516001600160e01b031663104c13eb60e21b179052610739565b50565b61050e83838360405160240161060793929190610a63565b60408051601f198184030181529190526020810180516001600160e01b031663e0e9ad4f60e01b179052610739565b8051600090819081905b8082101561073057600085838151811061065c5761065c610aa1565b01602001516001600160f81b0319169050600160ff1b81101561068b57610684600184610acd565b925061071d565b600760fd1b6001600160f81b0319821610156106ac57610684600284610acd565b600f60fc1b6001600160f81b0319821610156106cd57610684600384610acd565b601f60fb1b6001600160f81b0319821610156106ee57610684600484610acd565b603f60fa1b6001600160f81b03198216101561070f57610684600584610acd565b61071a600684610acd565b92505b508261072881610ae5565b935050610640565b50909392505050565b80516a636f6e736f6c652e6c6f67602083016000808483855afa5050505050565b82805461076690610a28565b90600052602060002090601f01602090048101928261078857600085556107ce565b82601f106107a15782800160ff198235161785556107ce565b828001600101855582156107ce579182015b828111156107ce5782358255916020019190600101906107b3565b506107da9291506107de565b5090565b5b808211156107da57600081556001016107df565b60008083601f84011261080557600080fd5b50813567ffffffffffffffff81111561081d57600080fd5b60208301915083602082850101111561083557600080fd5b9250929050565b6000806020838503121561084f57600080fd5b823567ffffffffffffffff81111561086657600080fd5b610872858286016107f3565b90969095509350505050565b6000815180845260005b818110156108a457602081850181015186830182015201610888565b818111156108b6576000602083870101525b50601f01601f19169290920160200192915050565b6020815260006108de602083018461087e565b9392505050565b634e487b7160e01b600052604160045260246000fd5b60006020828403121561090d57600080fd5b813567ffffffffffffffff8082111561092557600080fd5b818401915084601f83011261093957600080fd5b81358181111561094b5761094b6108e5565b604051601f8201601f19908116603f01168101908382118183101715610973576109736108e5565b8160405282815287602084870101111561098c57600080fd5b826020860160208301376000928101602001929092525095945050505050565b600080600080604085870312156109c257600080fd5b843567ffffffffffffffff808211156109da57600080fd5b6109e6888389016107f3565b909650945060208701359150808211156109ff57600080fd5b50610a0c878288016107f3565b95989497509550505050565b8183823760009101908152919050565b600181811c90821680610a3c57607f821691505b60208210811415610a5d57634e487b7160e01b600052602260045260246000fd5b50919050565b606081526000610a76606083018661087e565b6001600160a01b03851660208401528281036040840152610a97818561087e565b9695505050505050565b634e487b7160e01b600052603260045260246000fd5b634e487b7160e01b600052601160045260246000fd5b60008219821115610ae057610ae0610ab7565b500190565b6000600019821415610af957610af9610ab7565b506001019056fe257320686173207265676973746572206120646f6d61696e2025732e676d692121a2646970667358221220037e7dd8089db2c689fc0d103cd3d20e57d7fbd089bf69ba8a3c0b689560a09a64736f6c634300080c0033436f6e736f6c65206c6f672066726f6d2074686520646f6d61696e20636f6e74726163742121",
    "sourcePath": "d:/Projects/Buildspace/polygon_ens/gmi-domains/contracts/Domains.sol",
    "compiler": {
        "name": "solc",
        "version": "0.8.12+commit.f00d7308"
    },
    "functionHashes": {
        "domains(string)": "26449235",
        "getAddress(string)": "bf40fac1",
        "getRecord(string)": "11dd8845",
        "price(string)": "fe2c6198",
        "records(string)": "541e771d",
        "register(string)": "f2c298be",
        "setRecord(string,string)": "c1880a98",
        "tld()": "2d551432"
    },
    "gasEstimates": {
        "creation": {
            "codeDepositCost": "580600",
            "executionCost": "infinite",
            "totalCost": "infinite"
        },
        "external": {
            "domains(string)": "infinite",
            "getAddress(string)": "infinite",
            "getRecord(string)": "infinite",
            "price(string)": "infinite",
            "records(string)": "infinite",
            "register(string)": "infinite",
            "setRecord(string,string)": "infinite",
            "tld()": "infinite"
        }
    }
}